:100000000C943B090C9457090C9457090C9457090C
:100010000C9457090C9457090C9457090C945709E0
:100020000C9457090C9457090C9487100C94E31006
:100030000C9457090C9457090C9457090C945709C0
:100040000C9457090C9457090C9457090C945709B0
:100050000C9457090C9457090C9457090C945709A0
:100060000C9457090C9457090C9457090C94570990
:100070000C9457090C9457090C9457090C94570980
:100080000C9457090C9457090C9457090C94570970
:100090000C9457090C9457090C9457090C94570960
:1000A0000C9457090C9457090C945709400E480EAC
:1000B0004E0E540E5A0E600E660E6C0E9B0E9D0E6A
:1000C0009F0EA10EA30EA50EA70EA90E0000090FEC
:1000D000090F090F090F090F00000000090F090F90
:1000E000090F090F090F0000090F090F090F090F68
:1000F000090F0000000000000000090F090F090FA0
:10010000090F090F850F090F090F090F090F090FB3
:1001100000000000090F090F090F090F090F850FD3
:10012000090F090F090F090F090F090F000000003F
:10013000090F090F090F090F090F090F090F090FFF
:10014000090F090F090F090F00000000090F090F1F
:10015000090F090F090F090F090F090F090F090FDF
:10016000090F090F00000000090F090F090F090FFF
:10017000090F090F0000370F370F370F370F370FF1
:1001800000000000370F370F370F370F370F000011
:10019000370F370F370F370F370F00000000000001
:1001A0000000370F370F370F370F370F370F090F93
:1001B000090F090F090F800F00000000800F370F93
:1001C000370F370F370F090F370F090F090F090FB7
:1001D000090F800F00000000090F090F800F800F2A
:1001E000800F090F370F800F800F090F090F090FBC
:1001F00000000000370F090F800F800F090F090F53
:10020000370F090F090F090F090F090F0000000030
:10021000090F090F090F090F090F090F000000004E
:1002200000000000000000000000000000000000CE
:1002300000000000000000000000000000000000BE
:1002400000000000000000000000000000000000AE
:10025000000000000000000000000000000000009E
:10026000000000000000000000000000000000008E
:10027000000000000000000000000000000000007E
:10028000000000000000000000000000000000006E
:10029000000000000000000000000000000000005E
:1002A000000000000000000000000000000000004E
:1002B000000000000000000000000000000000003E
:1002C000000000000000370F370F370F370F370FD0
:1002D00000000000370F370F090F370F370F0000EE
:1002E000370F090F370F370F370F000000000000DE
:1002F0000000090F090F090F090F370F370F370FCC
:10030000370F370F370F370F00000000370F090F77
:10031000090F090F090F370F370F090F090F090FC1
:10032000370F370F00000000370F090F090F090FB3
:10033000090F370F370F370F090F370F370F370FE9
:1003400000000000370F090F090F090F090F370FC1
:10035000370F370F370F370F370F370F00000000F9
:10036000370F090F090F090F090F370FFE0F000094
:10037000000000000000560F000000000000000018
:100380000000000000006A0F0000000000000000F4
:10039000540F0000000000000000000000000000FA
:1003A0000000680F000000000000500F520F000016
:1003B00000000000000000000000640F660FF80F4E
:1003C00000000000370F740F760F000000000000DF
:1003D00000000000600F620FD90F00000000110F35
:1003E000700F720F000000000000000000005C0FA2
:1003F0005E0F850F00000000090F6C0F6E0F0000EC
:100400000000000000000000580F5A0F000000001C
:1004100000000000000000000000000000000000DC
:1004200000000000000000000000000000000000CC
:1004300000000000000000000000000000000000BC
:1004400000000000000000000000000000000000AC
:10075000000000000000000000000000500F090F22
:10076000090F090F090F090F00000000090F090FF9
:10077000090F090F090F580F090F090F090F090F6A
:10078000090F0000000000000000090F090F090F09
:10079000090F090F850F090F090F090F090F090F1D
:1007A00000000000090F090F090F090F090F850F3D
:1007B000090F090F090F090F090F090F00000000A9
:1007C000090F090F090F090F090F090F090F090F69
:1007D000090F090F090F090F00000000090F090F89
:1007E000090F090F090F090F090F090F090F090F49
:1007F000090F090F00000000090F090F090F090F69
:10080000090F090F520F370F370F370F370F370FF9
:1008100000000000370F370F370F370F370F370F34
:10082000370F370F370F370F370F0000000000006A
:100830000000370F370F370F370F370F370F370FCE
:10084000370F370F370F370F00000000370F370F04
:10085000370F370F370F370F370F370F370F370F68
:10086000370F370F00000000370F370F370F370FE4
:10087000370F370F370F370F370F370F370F370F48
:1008800000000000370F370F370F090F090F370F20
:100890000000090F090F090F090F090F00000000E0
:1008A000090F090F090F090F090F090F00000000B8
:1008B0000000000000000000000000000000000038
:1008C0000000000000000000000000000000000028
:1008D0000000000000000000000000000000000018
:1008E0000000000000000000000000000000000008
:1008F00000000000000000000000000000000000F8
:1009000000000000000000000000000000000000E7
:1009100000000000000000000000000000000000D7
:1009200000000000000000000000000000000000C7
:1009300000000000000000000000000000000000B7
:1009400000000000000000000000000000000000A7
:1009500000000000370F370F370F370F370F370FF3
:1009600000000000370F370F090F370F370F5A0FEE
:10097000370F090F370F370F370F00000000000047
:100980000000090F090F090F090F370F370F370F35
:10099000370F370F370F370F00000000370F090FE1
:1009A000090F090F090F370F370F090F090F090F2B
:1009B000370F370F00000000370F090F090F090F1D
:1009C000090F370F370F370F090F370F370F370F53
:1009D00000000000370F090F090F090F090F370F2B
:1009E000370F370F370F370F370F370F0000000063
:1009F000370FF80F090F090F090F370F000000001C
:100A000000000000000000000000000000000000E6
:100A100000000000000000000000000000000000D6
:100A200000000000000000000000000000000000C6
:100A300000000000000000000000000000000000B6
:100DE000000000000000000000000000014D4C2A3F
:100DF0004A2E00002E4B2C284E03E0E33130E20057
:100E00000000005051524FE4E11D1B06190500007F
:100E10001110363738E535041607090A00000B0DA6
:100E20000E0F33342B141A08151700001C180C125F
:100E3000132F291E1F202122000023242526272DC1
:100E400000000000000000000000000000000000A2
:100E50000000000000000000000000000000000092
:100E60000000000000000000000000000000000082
:100E70000000000000000000000000000000000072
:100E8000000000444500003A3B3C3D3E00003F402E
:100E90004142436600000000000000000000000026
:100EA0000000000000000000000000000000000042
:100EB0000000000000000000000000000000000032
:100EC0000000000000000000000000000000000022
:100ED0000000000000000000000000000000000012
:100EE0000000000000000000000000000000000002
:100EF0000000000000000049000000000000006247
:100F000062375800000000000000000000595A5BE2
:100F100058000050514F00000000005C5D5E57001B
:100F20000000520000000000005F606156000000F9
:100F3000000000000000000367545500000000009E
:100F400000000000000000000000000000000000A1
:100F50000000000000000000000000000000000091
:100F60000000000000000000000000000000000081
:100F70000000000000000000000000000000000071
:100F80000000000000000000000000000000000061
:100F90000000000000000000000000000000000051
:100FA0000000000000000000000000000000000041
:100FB0000000000000000000000000000000000031
:100FC0000000000000000000000000000000000021
:100FD0000000000000000000000000000000000011
:100FE0000000000000000000000000000000000001
:100FF00000000000000000000000000000000000F1
:1010000000000000000000000000000000000000E0
:1010100000000000000000000000000000000000D0
:1010200000000000000000000000000000000000C0
:1010300000000000000000000000000000000000B0
:1010400000000000000000000000000000000000A0
:101050000000000000000000000000000000000090
:101060000000000000000000000000000000000080
:101070000000000000000000000000000000000070
:101080000000000000000000000000000000000060
:101090000000000000000000000000000000000050
:1010A0000000000000000000000000000000000040
:1010B0000000000000000000000000000000000030
:1010C0000000000000000000000000000000000020
:1010D0000000000000000000000000000000000010
:1010E0000000000000000000000000000000000000
:1010F00000000000000000000000000000000000F0
:1011000000000000000000000000000000000000DF
:1011100000000000000000000000000000000000CF
:1011200000000000000000000000000000000000BF
:1011300000000000000100005C121200020000C963
:10114000113B00210000DB1109002200001D123FAD
:1011500000210100F411090022010004121900030A
:101160000000C5110401030904AB111802030904AE
:1011700073113636034500720067006F0044006F3C
:1011800000780020006500720067006F006E006F3D
:10119000006D006900630020006B0065007900624B
:1011A000006F006100720064000000180375006E9B
:1011B00000730070006500630069006600690065E7
:1011C00000640000000403090409023B000201005E
:1011D000C0320904000001030101000921110100CE
:1011E00001223F000705810308000A0904010001EC
:1011F00003000000092111010001221900070582E6
:101200000308000A050C0901A10185031501269CAC
:101210000219012A9C02751095018100C00501097F
:1012200006A10175019508050719E029E7150025B4
:10123000018102950175088103950575010508195D
:10124000012905910295017503910395067508150D
:101250000025680507190029688100C012010002F5
:1012600000000020501D286000010102000101C1A2
:101270000601C106000011241FBECFEFDAE0DEBF79
:10128000CDBF11E0A0E0B1E0E2E2F5E202C00590DE
:101290000D92AA31B107D9F722E0AAE1B1E001C06D
:1012A0001D92AF3CB207E1F7D3D00C948F120C948F
:1012B000000020911A01281760F030E0281B310946
:1012C000F901EE0FFF1FE20FF31FE757FD4F80817B
:1012D000089580E0089520911A01281760F030E009
:1012E000281B3109F901EE0FFF1FE20FF31FE7572B
:1012F000FD4F8281089580E00895E1E0F1E021E072
:1013000030E09191911117C0F901E050FF4F91E049
:10131000908340911A014F5F40931A0150E0FA0107
:10132000EE0FFF1FE40FF51FE757FD4F808321836A
:101330006283822F08952F5F3F4F2431310509F7D3
:1013400080E0089560911A0191E06917F0F1292F6A
:1013500030E0F901EE0FFF1FE20FF31FE757FD4FDB
:101360002181281330C09617D0F4292F30E0A9012D
:101370004F5F5F4FDA01AA0FBB1FA40FB51FA7571E
:10138000BD4F4C91F901EE0FFF1FE20FF31FE7571E
:10139000FD4F408311962C9121839F5FE4CF262F30
:1013A00030E0F901EE0FFF1FE20FF31FE757FD4F8B
:1013B00010821182E82FF0E0E050FF4F1082615060
:1013C00060931A0108959F5FC0CF08952091C702CE
:1013D0008091CA0290918802E0918702222381F0D5
:1013E0002EE0E29FF001112424E5929FE00DF11D13
:1013F0001124E80FF11DEE0FFF1FE45AF84F0FC044
:101400002EE0E29FF001112424E5929FE00DF11DF2
:101410001124E80FF11DEE0FFF1FE453FF4F8591DC
:101420009491009711F0FC01099580911A01282FE1
:1014300030E0F901EE0FFF1FE20FF31FE757FD4FFA
:101440009281923021F49091320291117BCF0895D4
:10145000E6D08CE090E09093890080938800909390
:101460008B0080938A0090938D0080938C00259A46
:10147000269A279AFAD510D68823E9F38FE790E0C9
:1014800090938900809388002FE782E490E12150B7
:1014900080409040E1F700C000008FE790E090931B
:1014A0008B0080938A002FE782E490E121508040F6
:1014B0009040E1F700C000008FE790E090938D002E
:1014C00080938C002FE782E490E12150804090408F
:1014D000E1F700C000002598269827988FE790E054
:1014E000909389008093880090938B0080938A006A
:1014F00090938D0080938C000EE080911401909168
:101500001501209116013091170130931501209398
:10151000140190931701809316018DD0109231021F
:1015200080913102863008F058C01092C802F090C5
:10153000C802109131022DE02F1508F44AC0E09145
:101540001601F0911701019FC00111248F0D911D0B
:10155000E80FF91F20812093C702E0911401F09158
:101560001501E80FF91F30813093C502231759F197
:10157000EC01CD5CDD4F222341F080E09ADE8093C8
:10158000880288831092C60209C0288120938802AD
:10159000FC01E55EFE4F80818093C60210938702B6
:1015A000F092CA021092C90211DF8091C802E09144
:1015B00031020E9FF0011124E80FF11DE55EFE4F90
:1015C0008091C60280838091C8028F5F8093C80299
:1015D000AECF1F5F10933102A3CF61D57CD78FE1CF
:1015E0009EE40197F1F700C000008091270280FF80
:1015F00002C0259A01C025988091270281FF02C070
:10160000269A01C026988091270282FF02C0279A5D
:1016100001C0279880912702809127026ECF1DD0AC
:10162000811105C01CD2882321F082E0089581E059
:10163000089580E00895CF93DF93EC01D7D0811116
:1016400006C0CE0137D2882321F082E003C081E0BA
:1016500001C080E0DF91CF910895E1E6F0E080E8FD
:101660008083108256985E9824982C982598269806
:10167000279889EA8093800089E08093810093D243
:101680003F9885E08A95F1F70000579885E08A95A4
:10169000F1F70000549885E08A95F1F7000055981D
:1016A00085E08A95F1F700006E9885E08A95F1F75C
:1016B0000000479A85E08A95F1F700005F9A85E07F
:1016C0008A95F1F700005C9A85E08A95F1F70000B1
:1016D0005D9A85E08A95F1F70000769A85E08A9513
:1016E000F1F70000879885E08A95F1F70000869869
:1016F00085E08A95F1F70000859885E08A95F1F7F5
:101700000000849885E08A95F1F70000819885E0D3
:101710008A95F1F70000809885E08A95F1F700003E
:10172000209885E08A95F1F70000219885E08A9558
:10173000F1F70000229885E08A95F1F700002398E0
:1017400085E08A95F1F70000529885E08A95F1F7D7
:101750000000539885E08A95F1F700003E9885E0F7
:101760008A95F1F700008F9885E08A95F1F70000DF
:101770008E9885E08A95F1F700008D9885E08A952E
:10178000F1F700008C9885E08A95F1F700008998C0
:1017900085E08A95F1F70000889885E08A95F1F751
:1017A0000000289A85E08A95F1F70000299A85E0E3
:1017B0008A95F1F700002A9A85E08A95F1F70000F2
:1017C0002B9A85E08A95F1F700005A9A85E08A9570
:1017D000F1F700005B9A85E08A95F1F70000469AE0
:1017E00085E08A95F1F7000080E00895FC01879A72
:1017F00085E08A95F1F7000093B1917081E0982718
:10180000978393B1969591709827908793B192FBA7
:10181000992790F99827918793B193FB992790F98D
:101820009827928799B192FB992790F998279387E7
:1018300099B193FB992790F99827948796B196FBD5
:10184000992790F998279587879885E08A95F1F7E9
:101850000000869A85E08A95F1F7000093B19170B7
:1018600081E09827958B93B1969591709827968BE8
:1018700093B192FB992790F99827978B93B193FB9B
:10188000992790F99827908F99B192FB992790F911
:101890009827918F99B193FB992790F99827928F68
:1018A00096B196FB992790F99827938F869885E0B3
:1018B0008A95F1F70000859A85E08A95F1F7000096
:1018C00093B1917081E0982793A393B1969591700D
:1018D000982794A393B192FB992790F9982795A301
:1018E00093B193FB992790F9982796A399B192FB0E
:1018F000992790F9982797A399B193FB992790F985
:10190000982790A796B196FB992790F9982791A7C9
:10191000859885E08A95F1F70000849A85E08A959C
:10192000F1F7000093B1917081E0982791AB93B1EA
:1019300096959170982792AB93B192FB992790F965
:10194000982793AB93B193FB992790F9982794AB81
:1019500099B192FB992790F9982795AB99B193FB90
:10196000992790F9982796AB96B196FB992790F90D
:10197000982797AB849885E08A95F1F70000819AC3
:1019800085E08A95F1F7000093B1917081E0982786
:1019900097AF93B1DF01A05CBF4F969591709827E8
:1019A0009C9393B1119692FB992790F998279C9359
:1019B00093B1119693FB992790F998279C9399B12D
:1019C000119692FB992790F998279C9399B11196BB
:1019D00093FB992790F998279C9396B1119696FBC3
:1019E000992790F998279C93819885E08A95F1F73B
:1019F0000000809A85E08A95F1F7000093B1EA5BD8
:101A0000FF4F917081E09827978393B196959170DD
:101A10009827908793B192FB992790F998279187FF
:101A200093B193FB992790F99827928799B192FBEC
:101A3000992790F99827938799B193FB992790F963
:101A40009827948796B196FB992790F998279587C0
:101A5000809885E08A95F1F7000080E00895CF93A3
:101A6000ABD080E4C8D0C82F811120C080E0C3D0A3
:101A70008FEFC1D080ECBFD0B6D09ED080E4BBD079
:101A8000C82F811113C08CE0B6D08FEFB4D080EC9A
:101A9000B2D0A9D091D080E4AED0C82F811106C0B9
:101AA00084E1A9D08FEFA7D08FEFA5D09CD08C2F49
:101AB000CF910895BF92CF92DF92EF92FF920F9352
:101AC0001F93CF93DF9300D0CDB7DEB7F82E9A8364
:101AD000C6DFB82E9A81882371F02F2D392F96E01A
:101AE000F90187E011928150E9F79150225F3F4F51
:101AF0009111F6CF4BC00F2D192F85E0E82EF12C58
:101B0000CC24C394D12C58D080E475D083E173D019
:101B1000C6010E2C01C0880F0A94EAF780956BD09D
:101B200062D04AD080E467D082E165D045D081E4BC
:101B300062D0CE0101967DD056D0898190E0F80127
:101B400040E050E09C01042E02C0359527950A9490
:101B5000E2F72170332761E02627217021934F5F40
:101B60005F4F4730510571F781E0E81AF108025FD5
:101B70001F4F6FEFE616F60609F0C5CF1DD080E4C3
:101B80003AD083E138D08FEF36D02DD08B2D0F9007
:101B90000F90DF91CF911F910F91FF90EF90DF9009
:101BA000CF90BF900895E9EBF0E080818C7F808337
:101BB00088E48093B800089584EA8093BC00809103
:101BC000BC0087FFFCCF8091B900887F883049F046
:101BD0008091B900887F803121F08091B900887FA1
:101BE000089580E0089584E98093BC008091BC0052
:101BF00084FDFCCF08958093BB0084E88093BC00F3
:101C00008091BC0087FFFCCF8091B900887F88312C
:101C100071F08091B900887F883249F08091B900D5
:101C2000887F803421F08091B900887F089580E01A
:101C3000089524EC2093BC002091BC0027FFFCCF2A
:101C40002091BB00FC0120838091B900887F803502
:101C500021F08091B900887F089580E00895962F43
:101C6000662309F45AC0462F50E0FA01E05EF109FC
:101C7000E830F105B8F5EA5AFF4F90912F0249C4B8
:101C8000882311F0916001C09E7F90932F020895E8
:101C9000882311F09260F9CF9D7FF7CF882311F050
:101CA0009460F3CF9B7FF1CF882311F09860EDCF44
:101CB000977FEBCF882311F09061E7CF9F7EE5CF30
:101CC000882311F09062E1CF9F7DDFCF882311F050
:101CD0009064DBCF9F7BD9CF882311F09068D5CF5C
:101CE0009F77D3CFE9E2F2E020E030E04081882323
:101CF00039F041110CC0F901E75DFD4F9083089563
:101D0000491305C0F901E75DFD4F108208952F5F6B
:101D10003F4F31962630310549F70895482F50E05E
:101D2000FA01E05EF109E830F105A8F4E25AFF4F4C
:101D300090912F02EEC390FD19C091FD17C092FD46
:101D400015C093FD13C094FD11C095FD0FC096FD05
:101D50000DC097FD0BC0E9E2F2E09191981731F0C8
:101D600092E0EF32F907C9F780E0089581E0089525
:101D7000CF93DF93C82FD0E0C95EDD4F88818823E1
:101D800011F0E0DA1882DF91CF910895CF93DF93BD
:101D9000C82F8091CA0290918802E09187022EE0BC
:101DA000E29FF001112424E5929FE00DF11D112422
:101DB000E80FF11DE451F24FD4918C2FD9DF80E070
:101DC0008ADA8150823018F480E073DABBDA60E09E
:101DD0008D2F93DAEC2FF0E0E95EFD4F8083DF91E9
:101DE000CF9108958091CA0290918802E091870274
:101DF0002EE0E29FF001112424E5929FE00DF11DF9
:101E00001124E80FF11DE451F24F64918091C70253
:101E100026CF8091C602811103C081E080933202F7
:101E2000E1CFCF93DF931F92CDB7DEB78091CA0287
:101E300090918802E09187022EE0E29FF001112448
:101E400024E5929FE00DF11D1124E80FF11DE451EE
:101E5000F24F6491862F698361DF6981882311F0D5
:101E600080E001C081E00F90DF91CF91F8CE81E05A
:101E70008093C6028091C9028F5F8093C90219DAEC
:101E8000809388029091CA02E09187022EE0E29F3F
:101E9000F0011124E90FF11DED5CFD4F808396CA1E
:101EA00081E074CF81E064CF82E070CF82E060CFC8
:101EB00083E06CCF83E05CCF84E068CF84E058CFD0
:101EC00085E064CF85E054CF86E060CF86E050CFD8
:101ED00087E05CCF87E04CCF88E058CF88E048CFE0
:101EE00089E054CF89E044CF8AE050CF8AE040CFE8
:101EF00063E881E0B4DED3D063E880E0B0DECFC039
:101F000061EE8091C702ABDE84CF8091CA029091CE
:101F10008802E09187022EE0E29FF001112424E57F
:101F2000929FE00DF11D1124E80FF11DE451F24FD5
:101F300064918091C702811105C090912402915053
:101F4000909324028CDE80912402813041F58091AF
:101F5000C702882321F181EEE1DE8093230285EE22
:101F6000DDDE8093220261EE80E079DE65EE80E0C6
:101F700076DE69E381E073DE92D069E380E06FDEB4
:101F80008ED080912302882319F061EE81E067DE14
:101F900080912202882319F065EE81E060DE809155
:101FA000C702882329F0809124028F5F8093240246
:101FB0000895CF938091CA0290918802E0918702A0
:101FC0002EE0E29FF001112424E5929FE00DF11D27
:101FD0001124E80FF11DE451F24FC49180912502C4
:101FE000B1D960E08C2F89D980932502CF9180CF21
:101FF00080912502A7D9109225027ACFF89481E02A
:102000008093E00080E28093D8001092C9008FE1B5
:102010009EE40197F1F700C000001DBA109268001D
:102020001CBC10BE1FBA10927A0010926E00109263
:102030006F0010927100109272001092C900ECEBC8
:10204000F0E0108214B817B81AB81DB810BA108290
:1020500015B818B81BB81EB811BA0C94003F0895F3
:102060008091E80080FFFCCF089581E08093D70045
:1020700080EA8093D80082E189BD09B400FEFDCFDB
:1020800080E98093D8001092E000109230028CE03A
:102090008093E200789408958091300208958091B1
:1020A0003002811102C08FEF08958FB7F89491E04C
:1020B0009093E9009091E4009E5C21E03091E8006B
:1020C00035FD0EC08FBF80913002882361F380916F
:1020D000E400891741F38FB7F8942093E900EECF1D
:1020E00090912F029093F1001092F100E9E2F2E05A
:1020F00091919093F10092E0EF32F907C9F79AE3DA
:102100009093E800109228028FBF80E008951F92FC
:102110000F920FB60F9211248F939F93EF93FF931B
:102120008091E1001092E10083FF0FC01092E9005E
:1021300091E09093EB001092EC0092E29093ED000E
:1021400098E09093F0001092300282FF33C08091AB
:102150003002882379F180911801882359F1809108
:1021600026028F5F80932602837021F581E08093A1
:10217000E9008091E80085FF1DC0809128028F5FF3
:102180008093280290911801891314C0109228029C
:1021900080912F028093F1001092F100E9E2F2E0C9
:1021A00081918093F10082E0EF32F807C9F78AE36A
:1021B0008093E800FF91EF919F918F910F900FBE58
:1021C0000F901F9018951F920F920FB60F92112427
:1021D000EF92FF920F931F932F933F934F935F9331
:1021E0006F937F938F939F93AF93BF93EF93FF93DF
:1021F000CF93DF931F92CDB7DEB71092E9008091A5
:10220000E80083FF20C19091F1008091F1003091AE
:10221000F1002091F100E32EF12CF22A0091F1005F
:102220002091F10010E0122B2091F1006091F1005B
:1022300032EF3093E800863009F046C039E084E39D
:1022400091E1FC01459154914E155F0539F4FC0173
:102250003296459154914017510721F0079631501D
:1022600081F7F1C0FC01349645915491FC013696FA
:10227000849130E0362B2F3F310519F010F02FEF0D
:1022800030E0281708F4822F3EEF9091E800292FC4
:102290002570D9F392FDDAC0982F813208F090E2D0
:1022A000FA01292F222331F064916093F10021502B
:1022B0003196F8CF490F511D891B3093E8008111E9
:1022C000E4CF903211F3C2C0853049F48EEF809391
:1022D000E800C6DE8E2D80688093E300B7C08930A9
:1022E00039F5911145C0E09230028EEF8093E800FD
:1022F00041E08EE692E14093E9009C012F5F3F4F61
:10230000FC0154915093EB00552359F0F9012491AD
:102310002093EC009C012D5F3F4F31968491809378
:10232000ED004F5F453011F0C901E5CF8EE141C0AE
:10233000883039F4903809F041C092DE8091300243
:1023400060C0811115C099838BDE9981923851F458
:102350000093E9008091EB0085FB882780F91092BB
:10236000E90001C080E08093F1001092F10067C0A5
:10237000282F2D7F213011F5923001F5EF2809F03B
:1023800062C00F779FEF900F943008F05CC09EEF13
:102390009093E8000093E900833009F454C089E188
:1023A0008093EB0081E090E0002E01C0880F0A943A
:1023B000EAF78093EA001092EA0048C0012B09F086
:1023C00042C0913A09F5813089F44ADE80912F02AA
:1023D0008093F1001092F100E9E2F2E081918093A4
:1023E000F10082E0EF32F807C9F729C0823021F40A
:1023F00037DE8091180105C0833029F531DE8091E8
:1024000019018093F1001BC09132E9F4893061F425
:102410008091E80082FFFCCF8091F1008093270239
:102420008BEF8093E8000BC08A3029F4F0921801FA
:102430001092280204C08B3031F4E09219018EEF23
:102440008093E80003C081E28093EB000F90DF915E
:10245000CF91FF91EF91BF91AF919F918F917F911C
:102460006F915F914F913F912F911F910F91FF902D
:10247000EF900F900FBE0F901F9018959091300223
:10248000911102C08FEF08959FB7F89422E0209336
:10249000E9002091E4002E5C32E04091E80045FD27
:1024A0000EC09FBF90913002992361F39091E40098
:1024B000921741F39FB7F8943093E900EECF8093E1
:1024C000F1006093F1007093F1008AE38093E800DB
:1024D0009FBF80E008956091CB027091CC02809103
:1024E000CD029091CE026817790781F083E0C6DFB4
:1024F000992787FD9095009759F42091CB02309150
:10250000CC023093CE022093CD02089580E090E07B
:102510000895EE0FFF1F0590F491E02D0994F894B3
:02252000FFCFEB
:1025220001000000000000000000000000000000A8
:0A253200000000006F01C3017D01ED
:00000001FF
